:1000000043EF00F000000000D9CF0AF0DACF0BF088
:100010007EEF32F000000000D8CF02F0E8CF03F00E
:10002000E0CF04F0D9CF05F0DACF06F0F2A001D08E
:1000300001D002D0EFEC2AF0F238E832010B016E69
:10004000F230E832010B01140009D8B401D001D01C
:1000500002D079EC34F0F030010B016EF038010B76
:1000600001140009D8B401D001D002D07FEC05F012
:1000700006C0DAFF05C0D9FF04C0E0FF03C0E8FFF7
:1000800002C0D8FF100040EF2CF0296A26AE05D040
:10009000256C261ED8B0262A292A25C010F026C095
:1000A00011F0126A136A960E146E29C015F0AAECAC
:1000B00030F013C028F012C027F011C026F010C095
:1000C00025F01200800E301A29C01AF02AC01BF049
:1000D0002BC01CF02CC01DF02DC01EF02EC01FF038
:1000E0002FC020F030C021F044EC2AF01DC02CF0CD
:1000F0001CC02BF01BC02AF01AC029F012000E0100
:100100004795F29E669CF00E1B132F0E1B170F0EC9
:100110002B13F00E2B17668CF28EEB979284949E25
:10012000240E0F01326F900E336F080E316F1E5187
:10013000A58AA38A23EF05F00E014799F29E669CDB
:10014000F00E1E133F0E1E170F0E2D13F10E2D175E
:10015000668CF28EEB9B9288959A240EFE6F900E21
:10016000FF6F080EFD6FFA51A98E618EB5EF04F096
:1001700094969498829682988B968B98948694887D
:10018000090EC66EFD0E686E360EC66EC69AC56A3C
:10019000080E696E360EC86E9F869E969D86C68A2C
:1001A000C78EC78C00F0360C93689684968E0F012C
:1001B000549DF19EF29E626A669C220E0E01336F80
:1001C000130E346F330E356F770E366F668CF28EEA
:1001D000F0970F0156695569D16AF190F2861200C5
:1001E0000F0110A001D00A8910B001D00A99113472
:1001F000113210320F0110A001D00A8B10B001D0C3
:100200000A9B11341130136E1030126E12500B6FA6
:1002100012000F0110A001D0078910B001D007997A
:100220001134113210320F0110A001D0078B10B021
:1002300001D0079B11341130136E1030126E125022
:10024000086F12000F0110A001D00D8910B001D06D
:100250000D991134113210320F0110A001D00D8B05
:1002600010B001D00D9B11341130136E1030126E8E
:1002700012500E6F12000F0110A001D0108910B0A3
:1002800001D010991134113210320F0110A001D099
:10029000108B10B001D0109B11341130136E103040
:1002A000126E1250116F1200610E0E01476F010E97
:1002B000476F978492829484928A9880840EC16E4C
:1002C000C06A8D6B8C6B8B6B380E8A6F896B886BF9
:1002D000010E866F280E8A6F280C10501202F3CF81
:1002E00014F0F4CF15F01050130208D81150120278
:1002F00005D814C010F015C011F01200F3CFF4FFB0
:10030000F36AF3501426F450152212000201636BB5
:100310004E51120A0CE1F29E669C0F0E0E012D1337
:10032000668CF28E9288479D9288479D03D0978471
:100330000E01479F010E0001F16F010CB6C272F071
:10034000B7C271F0B8C270F0F29E43EC04F0FCEC5E
:100350000DF0B6C372F0B7C371F0B8C370F0FCEC27
:100360000DF043EC04F0F28E1200C092C0A0FED754
:10037000C2CF1EF0C3CF1FF01EC016F01FC017F073
:10038000196A100E186EC0EC38F016C01EF017C0B7
:100390001FF01E501200938C0E01469B9894869479
:1003A000939E818E938C050EE82EFED700F00E01F1
:1003B0004689130E866FC082C80E00F0E82EFDD766
:1003C0001200938E0E01469998928692939C818C8E
:1003D000938E050EE82EFED700F00E01468B120E0E
:1003E000866FC082C80E00F0E82EFDD71200020111
:1003F000976B8251120A0AE1F29E669C0F0E0E0163
:100400002C13668CF28E9280479103D094840E0157
:100410004691010E0001F26F010C0301976B8251AE
:10042000120A0AE1F29E669C0F0E0E012B13668CD7
:10043000F28E9284479503D0928A0E014799010E5D
:100440000001F06F010C0301636B4E51120A0AE1C7
:10045000F29E669C0F0E0E012A13668CF28E928617
:10046000479703D092820E014793010E0001EF6F70
:10047000010CF29E669C0F0E1C13F90E1C17890EC0
:100480001D6FF00E22138F0E2217668CF28E0F0155
:10049000356BCB68040ECA6E0E01EA6B1200820F38
:1004A00006820F07830F05830F01800F03800F0261
:1004B000800F04800F00920F03920F02920F04929C
:1004C0000F0003020400E80311AE0DD010C012F0BB
:1004D00011C013F0121E131E124A132A12C010F07C
:1004E00013C011F0120010C010F011C011F0120072
:1004F000E8CF11F00CD0180E1CEC05F0180E1CEC17
:1005000005F0180E1CEC05F0180E1CEC05F0110699
:100510001128D8B41200EFD710C0D9FF11C0DAFFEC
:10052000DF50136E12C014F0010E156E142A02D0A3
:10053000D8901536142EFCD7155013141200958838
:10054000958C0F01548F959E838EF29E669CF00EC3
:100550000E0137136F0E3717668CF09EF092F088FD
:10056000F28E6F0C106A0201836B956B106A960E07
:100570001024D96EDA6A020EDA22DF6A102A1E0E01
:100580001064F5D71E0C0301CB5102E0CB0701D05C
:10059000000CCC2B0F0ECC17CE0ECC25D96EDA6A00
:1005A000030EDA22DF501200106A02014F6B616BFA
:1005B000106A620E1024D96EDA6A020EDA22DF6A3D
:1005C000102A1E0E1064F5D71E0C0301DF5102E045
:1005D000DF0701D0000CE02B0F0EE017E20EE02544
:1005E000D96EDA6A030EDA22DF501200106A0301B4
:1005F000836B956B106A960E1024D96EDA6A030E1F
:10060000DA22DF6A102A1E0E1064F5D71E0C0201D2
:10061000065102E0060701D0000C072B0F0E07174A
:10062000090E0725D96EDA6A020EDA22DF501200AF
:10063000106A03014F6B616B106A620E1024D96E51
:10064000DA6A030EDA22DF6A102A1E0E1064F5D76A
:100650001E0C0201EB5102E0EB0701D0000CEC2B69
:100660000F0EEC17EE0EEC25D96EDA6A020EDA22C6
:10067000DF5012009690969284908492979C949A60
:10068000859C829A969C979E849C859E9698969A25
:100690008498849A12000201062B082B0F0E08176B
:1006A000090E0825D96EDA6A020EDA220F011ECF72
:1006B000DFFFA49A12000301DF2BE12B0F0EE117DD
:1006C000E20EE125D96EDA6A030EDA220E01FACEC5
:1006D000DFFF12000301CB2BCD2B0F0ECD17CE0E5B
:1006E000CD25D96EDA6A030EDA220F012ACFDFFF99
:1006F0001200E8CF11F0070E1116430E00EC05F0C2
:10070000115000EC05F01150BC0A00EF05F0E8CFE5
:1007100011F0070E1116430E07EC05F0115007EC0F
:1007200005F01150BC0A07EF05F0E8CF11F0070EF5
:100730001116430E0EEC05F011500EEC05F01150A1
:10074000BC0A0EEF05F0E8CF11F0070E1116430EAC
:1007500015EC05F0115015EC05F01150BC0A15EF21
:1007600005F00201EB2BED2B0F0EED17EE0EED2534
:10077000D96EDA6A020EDA22AECFDFFF1200800FE6
:1007800001800F05850F02820F02820F00820F0188
:10079000850F04850F03C092C0A0FED7939C819C57
:1007A000818E939EC2CF10F0C3CF11F01200F29E43
:1007B000669C0F0E0E011E17F00E1417668CF28E3B
:1007C00095928392F00CF29E669C0F0E0E011E17FE
:1007D000F00E1417668CF28E95829280F00CF29EC9
:1007E000669C0F0E0E011C17F00E1217668CF28E0F
:1007F000959A839AF00CF29E669C0F0E0E011C17C0
:10080000F00E1217668CF28E958A9288F00CF29E8A
:10081000669C0F0E0E011B17F00E1317668CF28EDE
:10082000949E829EF00CF29E669C0F0E0E011B178A
:10083000F00E1317668CF28E948E9284F00CF29E5A
:10084000669CF00E0E011B170F0E1317668CF28EAE
:10085000949C829C0F0CF29E669CF00E0E011B175E
:100860000F0E1317668CF28E948C92860F0C0E016D
:100870004695979C949A859C829A01012C6B2D6BCE
:100880002E6B2F6B1200858AE00E00D0E82EFDD76C
:10089000859AE00E00D0E82EFDD71200900ED56E9E
:1008A000F00ED76E6A0ED66EF294F28AF1946A0C4C
:1008B0009698969A8498849A0101586B596B5A6B52
:1008C0005B6B1200969C979E849C859E0001BA6B80
:1008D000BB6BBC6BBD6B1200969096928490849219
:1008E0000101006B016B026B036B1200080E0E011D
:1008F000866FC0821A0EE82EFED700D01200090EB5
:100900000E01866FC0821A0EE82EFED700D01200AC
:10091000070E0E01866FC0821A0EE82EFED700D099
:100920001200040E0E01866FC0821A0EE82EFED74A
:1009300000D01200ACA2FED7150EAF6E010E0F0153
:10094000306F67EF05F0D2C110F0D3C111F0D4C100
:1009500012F0D5C113F01200010E0E01866FC08295
:100960001A0EE82EFED700D012000E01FEA3FDD70E
:10097000090EFB6F1A0EFC6F58EF05F00F012EA346
:10098000FDD7090E2B6F1A0E2C6F5DEF05F0ACA290
:10099000FED7090EAF6E1A0E0F01306F67EF05F02C
:1009A000E8CF10F010B002D0839201D08382120001
:1009B0002EA3FED7150E2B6F010E2C6F5DEF05F0E9
:1009C000E8CF10F010B002D0839A01D0838A1200D1
:1009D000FEA3FED7150EFB6F010EFC6F58EF05F05E
:1009E000E8CF10F010B002D0829E01D0828E1200AB
:1009F000E8CF10F010B002D0829C01D0828C12009F
:100A0000E8CF10F0A6A8FED710C029FF1200E8CF4B
:100A100010F0A6ACFED710C0F9FE1200E8CF10F01F
:100A2000A4A8FED710C01DFF1200E8CF10F09EA8AA
:100A3000FED710C0ADFF1200E8CF10F0100610284E
:100A4000D8B41200FBD7090E0F011F6F1A0E206FCA
:100A500062EF05F0959483840F01086B0C0E076F0D
:100A60000C0C969684860F010B6B0C0E0A6F0C0C07
:100A7000959683860F01116B0C0E106F0C0C9590E0
:100A800083900F010E6B0C0E0D6F0C0C940F0694DF
:100A90000F06950F06950F06470E03470E02470EE9
:100AA00002470E00150E1F6F010E206F62EF05F05A
:100AB0000301DF6BE16BE06B12000301CB6BCD6BCD
:100AC000CC6B12000201066B086B076B120002016F
:100AD000EB6BED6BEC6B1200619A958292801200C9
:100AE000619E958A92881200A39A948E9284120035
:100AF0009D9A948C92861200010001010101F092EE
:100B000012001901000000000000000000000000B9
:100B100000000000000000000000000000000000D5
:100B200000000000000000000000000000000000C5
:100B300000000000000000000000000000000000B5
:100B400000000000000000000000000000000000A5
:100E000056322E31300000006D6E64736E73727353
:100E1000506953746F726D73410000000000000050
:100E200056322E31300000006D6E64736E73727333
:100E3000506953746F726D7342000000000000002F
:100E40000102040810200000000000C12CF001C1C4
:100E50002DF002C12EF003C12FF02F342F322E328D
:100E60002D322C322FC034F32EC033F32DC032F389
:100E70002CC031F32CC12CF02DC12DF02EC12EF041
:100E80002FC12FF02F342F322E322D322C322FC083
:100E900038F32EC037F32DC036F32CC035F3BAC06B
:100EA0002CF0BBC02DF0BCC02EF0BDC02FF02F34F5
:100EB0002F322E322D322C322FC034F22EC033F28C
:100EC0002DC032F22CC031F2010158C12CF059C1B1
:100ED0002DF05AC12EF05BC12FF02F342F322E325D
:100EE0002D322C322FC038F22EC037F22DC036F200
:100EF0002CC035F276EC04F0B5EC01F003014D6F37
:100F00004DC34DF228AFB3D0396B28B128B702D00A
:100F100028AD05D003EC3BF0030106EC0CF028A54E
:100F200017D000C108F101C109F102C10AF103C1E2
:100F30000BF1FCEC0BF0010108512C24086F095156
:100F40002D20096F0A512E200A6F0B512F200FD030
:100F5000D89021350101086F030122350101096F85
:100F60000301233501010A6F0301243501010B6FD1
:100F70000301256703D001010C6B02D025C30CF1DE
:100F800028C30EF10EC12CF0080E2C1601010351DE
:100F90000B1908E102510A1905E10151091902E191
:100FA00000510819010ED8A4000E2C1404E003010E
:100FB0002851DF0B03D003012851200901010F6FD5
:100FC000030128517F0B286F28A722D001010B5164
:100FD000800A2C6E0051085D0151095902510A59CD
:100FE0000351800A2C580AE20C51106E116A10BE8F
:100FF000110664EC02F01050000808D00C51106E7D
:10100000116A10BE110664EC02F0105001010C6F61
:1010100001010EAD17D0030126C310F0116A030EB3
:10102000136EE80E126E6DEC01F010C028F111C0C5
:1010300029F101010E5101090E6F0F5101090F6FC6
:101040000301398D01010FA102D003013981010192
:101050000FA702D00301398701010FA102D00301BC
:101060003981030E0101256FFF0E246929D001018A
:101070000EAD26D02951281123E1BE0E03013917E8
:101080003B6B01010F51DF0B0F6F0E51BF0B0E6F4A
:1010900003EC3BF00EA90AD00301398984809690B5
:1010A0008482969201010F51100909D003013999E8
:1010B000969096928490849201010F51EF0B0F6FDE
:1010C000030130AFBBD0010E30B1000E2C6E2D6A83
:1010D0003051080B2C123051400B2C122D502C107B
:1010E00009E0DDEC3AF003013A6B30517F0B306FD1
:1010F000010E3C6F30A515D02CC134F12DC135F156
:101100002EC136F12FC137F16CDB34512C24346FF2
:1011100035512D20356F36512E20366F37512F2007
:101120000FD0D89029350101346F03012A35010110
:10113000356F03012B350101366F03012C35010199
:10114000376F03012D6703D00101386B02D02DC327
:1011500038F130C33AF13AC12CF0080E2C160101D7
:101160002F51371908E12E51361905E12D51351946
:1011700002E12C513419010ED8A4000E2C1404E005
:1011800003013051DF0B03D003013051200901016D
:101190003B6F030142DB30A722D001013751800AA7
:1011A0002C6E2C51345D2D5135592E5136592F51FD
:1011B000800A2C580AE23851106E116A10BE1106CE
:1011C00064EC02F01050000808D03851106E116A1B
:1011D00010BE110664EC02F010500101386F0101DD
:1011E0003AAD17D003012EC310F0116A030E136E2F
:1011F000E80E126E6DEC01F010C054F111C055F103
:1012000001013A5101093A6F3B5101093B6F03015A
:101210003A8D01013BA102D003013A8101013BA7B4
:1012200002D003013A8701013BA102D003013A81B8
:10123000030E0101516FFF0E506929D001013AAD33
:1012400026D05551541123E1BE0E03013A173C6BD1
:1012500001013B51DF0B3B6F3A51BF0B3A6FDDECA5
:101260003AF03AA90AD003013A89979C949A858C5E
:10127000828A01013B51100909D003013A99979CD8
:10128000949A859C829A01013B51EF0B3B6F0201BE
:1012900028AFB0D028B128B702D028AD04D0B7EC21
:1012A0003AF00201B3DA28A516D0BAC0C2F0BBC02A
:1012B000C3F0BCC0C4F0BDC0C5F09EDA0001C2518D
:1012C0002C24C26FC3512D20C36FC4512E20C46F74
:1012D000C5512F200FD0D89021350001C26F0201D7
:1012E00022350001C36F020123350001C46F0201E2
:1012F00024350001C56F0201256703D00001C66BCC
:1013000002D025C2C6F028C2C8F0C8C02CF0080E12
:101310002C160001BD51C51908E1BC51C41905E1E5
:10132000BB51C31902E1BA51C219010ED8A4000E73
:101330002C1404E002012851DF0B03D002012851D4
:1013400020090001C96F020128517F0B286F28A7CF
:1013500022D00001C551800A2C6EBA51C25DBB512A
:10136000C359BC51C459BD51800A2C580AE2C65118
:10137000106E116A10BE110664EC02F010500008E5
:1013800008D0C651106E116A10BE110664EC02F04E
:1013900010500001C66F0001C8AD17D0020126C26F
:1013A00010F0116A030E136EE80E126E6DEC01F070
:1013B00010C0E2F011C0E3F00001C8510109C86F8C
:1013C000C9510109C96F0201398D0001C9A102D0BB
:1013D000020139810001C9A702D002013987000149
:1013E000C9A102D002013981030E0001DF6FFF0E97
:1013F000DE6925D00001C8AD22D0E351E2111FE122
:10140000BE0E020139173B6B0001C951DF0BC96FDA
:10141000C851BF0BC86FB7EC3AF0C8A90AD0020197
:101420003989848C969C858E979E0001C95110093C
:1014300005D07CEC36F00001C951EF0BC96F0201F9
:1014400030AFB0D030B130B702D030AD07D091EC72
:101450003AF002013A6B010E3C6FDFD930A515D08E
:1014600058C160F159C161F15AC162F15BC163F1C8
:10147000B8D960512C24606F61512D20616F625189
:101480002E20626F63512F200FD0D8902935010193
:10149000606F02012A350101616F02012B350101E4
:1014A000626F02012C350101636F02012D6703D0C9
:1014B00001010C6B02D02DC264F130C266F166C12D
:1014C0002CF0080E2C1601015B51631908E15A51EA
:1014D000621905E15951611902E158516019010E73
:1014E000D8A4000E2C1404E002013051DF0B03D00D
:1014F0000201305120090101676F02018ED930A726
:1015000022D001016351800A2C6E5851605D5951FF
:1015100061595A5162595B51800A2C580AE2645150
:10152000106E116A10BE110664EC02F01050000833
:1015300008D06451106E116A10BE110664EC02F0FE
:1015400010500101646F010166AD17D002012EC277
:1015500010F0116A030E136EE80E126E6DEC01F0BE
:1015600010C080F111C081F1010166510109666F5F
:1015700067510109676F02013A8D010167A102D02D
:1015800002013A81010167A702D002013A870101F5
:1015900067A102D002013A81030E01017D6FFF0EA7
:1015A0007C6925D0010166AD22D0815180111FE1F7
:1015B000BE0E02013A173C6B01016751DF0B676FEA
:1015C0006651BF0B666F91EC3AF066A90AD0020132
:1015D0003A899698969A8488848A010167511009FD
:1015E00005D034EC36F001016751EF0B676F5F6691
:1015F0001200190E5F6E0EAD02D00301398D01018C
:1016000021EE24F0E9D8D8B4DF5C04E3030E256FA3
:10161000FC0E246F3AAD02D003013A8D010121EE98
:1016200050F0DAD8D8B4DF5C04E3030E516FFC0E3F
:10163000506F0001C8AD02D00201398D000120EECB
:10164000DEF0CAD8D8B4DF5C04E3030EDF6FFC0E13
:10165000DE6F010166AD02D002013A8D010121EE7B
:101660007CF0BAD8D8B4DF5C04E3030E7D6FFC0EC7
:101670007C6F03013E513D1128E1256703D0010134
:101680000F9B03D0200E01010F6F03012D6703D0C4
:1016900001013B9B03D0200E01013B6F030125514B
:1016A00093D86DEC01F010C016F011C017F00DECDE
:1016B00037F003012D5188D86DEC01F010C016F001
:1016C00011C017F0FCEC38F026D001010EB102D0A9
:1016D0000EAD03D09EEC14F00BD00EA703D025EC7A
:1016E00019F006D0266B276B969096928490849280
:1016F00001013AB102D03AAD03D009EC13F00BD09E
:101700003AA703D09BEC1AF006D0526B536B979C10
:10171000949A859C829A02013E513D1127E12567EA
:1017200003D00001C99B03D0200E0001C96F020144
:101730002D6703D00101679B03D0200E0101676F65
:101740000201255141D86DEC01F010C016F011C016
:1017500017F03BEC36F002012D5136D86DEC01F05C
:1017600010C016F011C017F0F3EF35F00001C8B14A
:1017700002D0C8AD03D073EC11F012D0C8A703D0CB
:10178000ACEC17F00DD0E06BE16BC8A907D00201FB
:101790003989848C969C858E979E02D07CEC36F09D
:1017A000010166A166BDDDEF0FF066B733EF16F0FD
:1017B0007E6B7F6B66A934EF36F002013A8996980A
:1017C000969A8488848A1200106E116A10BE1106DF
:1017D000136A0A0E126E0A0CDE52DD50800A7D0F6B
:1017E000FD0CD89029352C6E2A352D6E2B352E6E9A
:1017F0002C352F6E01011200D89021352C6E223528
:101800002D6E23352E6E24352F6E1200396B010E8E
:101810003B6F28517F0B286F120030517F0B306FC8
:101820001200E8CF1DF01D50080DCB0EF324D96E29
:10183000020EF420DA6EDECF20F0DDCF21F01D5055
:10184000080DCF0EF324D96E020EF420DA6EDECF2F
:1018500024F0DDCF25F01D50080DCD0EF324D96EF8
:10186000020EF420DA6EDECF22F0DDCF23F01D5021
:10187000080DD10EF324D96E020EF420DA6EDECFFD
:101880001EF0DDCF1FF02550800A166E2050245C1C
:101890002150800A165801E38BD02350800A166E1F
:1018A0002050225C2150800A165801E381D021503B
:1018B000800A800F410ED8B4205C0EE31F50800ACE
:1018C000800F280ED8B41E5C08E22150800A800FD9
:1018D0006E0ED8B4205C01E2010C24C016F025C0C5
:1018E00017F01734173216326BD924C018F025C000
:1018F00019F01934193218321934193218321650B5
:1019000018241A6E175019201B6E24501A262550C1
:101910001B221B50800A1C6E22501A5C2350800A26
:101920001C580FE2D8902234166E2334176E2150C3
:10193000800A186E1650205C1750800A185801E271
:10194000040C22C016F023C017F03AD9D8902234E4
:10195000186E2334196E1650185C1A6E17501958E9
:101960001B6E1B50800A1C6E20501A5C2150800A8E
:101970001C5801E2050C2550800A800F460ED8B491
:10198000245CAAE32350800A800F460ED8B4225C60
:10199000A3E31F50800A800F8C0ED8B41E5C07E2B0
:1019A0002150800A800F8C0ED8B4205C95E3060C81
:1019B0002550800A166E2250245C2350800A165847
:1019C00059E22350800A800F280ED8B4225C84E3A9
:1019D0001F50800A800F1E0ED8B41E5C08E22350F0
:1019E000800A800F460ED8B4225C01E275D7D890E9
:1019F0002434166E2534176E1750800A186E205046
:101A0000165C2150800A18589BE320C016F021C0B4
:101A100017F0D6D82050162621501722E0D80BE315
:101A200024C016F025C017F0CBD824501626255018
:101A30001722D5D801E2030C2150800A800F460EF0
:101A4000D8B4205C01E248D72550800A800F460EAA
:101A5000D8B4245C01E240D71F50800A800F8C0E5E
:101A6000D8B41E5CA4E22350800A800F8C0ED8B438
:101A7000225C9CD72550800A800F300ED8B4245C9D
:101A800001E22AD71F50800A800F190ED8B41E5CBD
:101A900008E22550800A800F550ED8B4245C01E27C
:101AA0001BD720C010F021C011F0136A300E126E47
:101AB0006DEC01F0050E166E9BD8162EFDD7115059
:101AC00086D811E222C010F023C011F0136A300E44
:101AD000126E6DEC01F0050E166E8AD8162EFDD72B
:101AE000115075D822E320C010F021C011F0136A04
:101AF0003A0E126E6DEC01F0050E166E79D8162EA8
:101B0000FDD7115064D811E322C010F023C011F0AA
:101B1000136A3A0E126E6DEC01F0050E166E68D85F
:101B2000162EFDD7115053D801E2020C2150800A25
:101B3000800F3C0ED8B4205C01E2CED62350800A40
:101B4000800F3C0ED8B4225C01E2C6D61F50800A3A
:101B5000800F6E0ED8B41E5C08E22550800A800FFC
:101B6000780ED8B4245C01E2B7D620C016F021C0AC
:101B700017F026D817341732163220501626215067
:101B800017221750800A186E2450165C2550800AC0
:101B90001858CBE322C016F023C017F011D8173421
:101BA0001732163222501626235017221750800A59
:101BB000186E2450165C2550800A1858B6E3060C9F
:101BC0001734173216321734173216321200800AC1
:101BD000176E2450105C2550800A175812001750B9
:101BE000800A186E2250165C2350800A1858120082
:101BF0001134113210321200858A00F000F000F02A
:101C000000F071AF859A00F000F000F000F000F0F5
:101C100000F000F0859A00F000F000F000F000F015
:101C2000858A00F000F000F000F071AD859A00F0B8
:101C300000F000F000F000F000F000F0859A00F0F5
:101C400000F000F000F000F0858A00F000F000F0F5
:101C500000F071AB859A00F000F000F000F000F0A9
:101C600000F000F0859A00F000F000F000F000F0C5
:101C7000858A00F000F000F000F071A9859A00F06C
:101C800000F000F000F000F000F000F0859A00F0A5
:101C900000F000F000F000F0858A00F000F000F0A5
:101CA00000F071A7859A00F000F000F000F000F05D
:101CB00000F000F0859A00F000F000F000F000F075
:101CC000858A00F000F000F000F071A5859A00F020
:101CD00000F000F000F000F000F000F0859A00F055
:101CE00000F000F000F000F0858A00F000F000F055
:101CF00000F071A3859A00F000F000F000F000F011
:101D000000F000F0859A00F000F000F000F000F024
:101D1000858A00F000F000F000F071A1859A00F0D3
:101D200000F000F000F000F000F000F0859A00F004
:101D300000F000F000F000F0858A00F000F000F004
:101D400000F072AF859A00F000F000F000F000F0B3
:101D500000F000F0859A00F000F000F000F000F0D4
:101D6000858A00F000F000F000F072AD859A00F076
:101D700000F000F000F000F000F000F0859A00F0B4
:101D800000F000F000F000F0858A00F000F000F0B4
:101D900000F072AB859A00F000F000F000F000F067
:101DA00000F000F0859A00F000F000F000F000F084
:101DB000858A00F000F000F000F072A9859A00F02A
:101DC00000F000F000F000F000F000F0859A00F064
:101DD00000F000F000F000F0858A00F000F000F064
:101DE00000F072A7859A00F000F000F000F000F01B
:101DF00000F000F0859A00F000F000F000F000F034
:101E0000858A00F000F000F000F072A5859A00F0DD
:101E100000F000F000F000F000F000F0859A00F013
:101E200000F000F000F000F0858A00F000F000F013
:101E300000F072A3859A00F000F000F000F000F0CE
:101E400000F000F0859A00F000F000F000F000F0E3
:101E5000858A00F000F000F000F072A1859A00F091
:101E600000F000F000F000F000F000F0859A00F0C3
:101E700000F000F000F000F0858A00F000F000F0C3
:101E800000F070AF859A00F000F000F000F000F074
:101E900000F000F0859A00F000F000F000F000F093
:101EA000858A00F000F000F000F070AD859A00F037
:101EB00000F000F000F000F000F000F0859A00F073
:101EC00000F000F000F000F0858A00F000F000F073
:101ED00000F070AB859A00F000F000F000F000F028
:101EE00000F000F0859A00F000F000F000F000F043
:101EF000858A00F000F000F000F070A9859A00F0EB
:101F000000F000F000F000F000F000F0859A00F022
:101F100000F000F000F000F0858A00F000F000F022
:101F200000F070A7859A00F000F000F000F000F0DB
:101F300000F000F0859A00F000F000F000F000F0F2
:101F4000858A00F000F000F000F070A5859A00F09E
:101F500000F000F000F000F000F000F0859A00F0D2
:101F600000F000F000F000F0858A00F000F000F0D2
:101F700000F070A3859A00F000F000F000F000F08F
:101F800000F000F0859A00F000F000F000F000F0A2
:101F9000858A00F000F000F000F070A1859A00F052
:101FA00000F000F000F000F000F000F0859A00F082
:101FB00000F000F000F000F0120002013A812D5113
:101FC000106E116A10BE110664EC02F0D890103445
:101FD000266E1134276E010166A72ED026C01EF092
:101FE00027C01FF0000E1FBEFF0E206E216E58513D
:101FF000605D106E59516159116E5A516259126EDD
:102000005B516359136E62EC39F01350800A226EF3
:102010001E50105C1F501158205012582150800A39
:1020200022580AE201016651FE0B666F6751FE0BF2
:10203000676F02013A913A8701015C51585D786FF0
:102040005D515959796F5E515A597A6F5F515B5999
:102050007B6F58C15CF159C15DF15AC15EF15BC142
:102060005FF178C11EF079C11FF07AC120F07BC109
:1020700021F0020ED8901E361F3620362136E82E6B
:10208000F9D76451226E000E22BEFF0E236E246E1D
:10209000256E1E50225C686F1F502358696F2050B8
:1020A00024586A6F215025586B6F68517027695109
:1020B00071236A5172236B5173237351800A810F0C
:1020C00008E1FF0E725D05E1F80E715D02E1300E70
:1020D000705D07E2300E706FF80E716FFF0E72695F
:1020E00013D07351800A800F08E1000E725D05E184
:1020F000070E715D02E1D10E705D07E3D00E706FC7
:10210000070E716F000E726B736F746B756B766B6D
:10211000776B7751741175117611D8B467AB04D011
:10212000835106E0830704D0140E836F02013A9FA7
:1021300002013C6701D002D0010E01D0000E1E6EDC
:1021400001018351010ED8A4000E1E14E8A002D094
:1021500002013A8F68C16CF169C16DF16AC16EF11B
:102160006BC16FF1020143C210F044C211F0126A58
:10217000136A68C114F069C115F06AC116F06BC129
:1021800017F029EC3BF010C01EF011C01FF012C078
:1021900020F013C021F0020147C210F048C211F034
:1021A000126A136A74C114F075C115F076C116F085
:1021B00077C117F029EC3BF010501E24226E11500D
:1021C0001F20236E12502020246E13502120256ED4
:1021D000020145C210F046C211F0126A136A70C1C2
:1021E00014F071C115F072C116F073C117F029EC2B
:1021F0003BF010502224286E11502320296E1250DB
:1022000024202A6E135025202B6E28C010F029C0E0
:1022100011F02AC012F02BC013F0900E146E010EB4
:10222000156E000E166A176A08EC31F013C02BF019
:1022300012C02AF011C029F010C028F07CC11EF095
:102240007DC11FF0000E1FBEFF0E206E216E2150BB
:10225000800A226E28501E5C29501F582A50205890
:102260002B50800A225807E221EE7CF0DECF28F0C6
:10227000DDCF29F020D02ED81E4A1F2A1EC020F004
:102280001FC021F0000E21BEFF0E226E236E2B50C8
:10229000800A246E2050285C2150295822502A5848
:1022A0002350800A24580CE215D81E4A1F2A1EC04B
:1022B00028F01FC029F0000E29BEFF0E2A6E2B6EDB
:1022C00028C07EF129C07FF17EC116F07FC117F0D2
:1022D000F3EF35F021EE7CF0DECF1EF0DDCF1FF006
:1022E0001E1E1F1E1200020139812551106E116A37
:1022F00010BE110664EC02F0D8901034266E113432
:10230000276E0001C8A72ED026C01EF027C01FF0E0
:10231000000E1FBEFF0E206E216EBA51C25D106E00
:10232000BB51C359116EBC51C459126EBD51C55930
:10233000136E62EC39F01350800A226E1E50105C4E
:102340001F501158205012582150800A22580AE27A
:102350000001C851FE0BC86FC951FE0BC96F0201C5
:10236000399139870001BE51BA5DDA6FBF51BB594F
:10237000DB6FC051BC59DC6FC151BD59DD6FBAC0B4
:10238000BEF0BBC0BFF0BCC0C0F0BDC0C1F0DAC081
:102390001EF0DBC01FF0DCC020F0DDC021F0020E1B
:1023A000D8901E361F3620362136E82EF9D7C65172
:1023B000226E000E22BEFF0E236E246E256E1E506E
:1023C000225CCA6F1F502358CB6F20502458CC6F0B
:1023D00021502558CD6FCA51D227CB51D323CC5190
:1023E000D423CD51D523D551800A810F08E1FF0EAA
:1023F000D45D05E1F80ED35D02E1300ED25D07E257
:10240000300ED26FF80ED36FFF0ED46913D0D551B2
:10241000800A800F08E1000ED45D05E1070ED35D50
:1024200002E1D10ED25D07E3D00ED26F070ED36F5B
:10243000000ED46BD56FD66BD76BD86BD96BD951D7
:10244000D611D711D811D8B4C9AB04D0E55106E0E4
:10245000E50704D0140EE56F0201399F02013B67C6
:1024600001D002D0010E01D0000E1E6E0001E55118
:10247000010ED8A4000E1E14E8A002D00201398F6C
:10248000CAC0CEF0CBC0CFF0CCC0D0F0CDC0D1F020
:10249000020143C210F044C211F0126A136ACAC0AA
:1024A00014F0CBC015F0CCC016F0CDC017F029EC5D
:1024B0003BF010C01EF011C01FF012C020F013C07E
:1024C00021F0020147C210F048C211F0126A136AEB
:1024D000D6C014F0D7C015F0D8C016F0D9C017F088
:1024E00029EC3BF010501E24226E11501F20236E49
:1024F00012502020246E13502120256E020145C267
:1025000010F046C211F0126A136AD2C014F0D3C0A0
:1025100015F0D4C016F0D5C017F029EC3BF01050E0
:102520002224286E11502320296E125024202A6E56
:10253000135025202B6E28C010F029C011F02AC09E
:1025400012F02BC013F0900E146E010E156E000EDB
:10255000166A176A08EC31F013C02BF012C02AF08B
:1025600011C029F010C028F0DEC01EF0DFC01FF03F
:10257000000E1FBEFF0E206E216E2150800A226EBB
:1025800028501E5C29501F582A5020582B50800A72
:10259000225807E220EEDEF0DECF28F0DDCF29F072
:1025A00020D02ED81E4A1F2A1EC020F01FC021F0A6
:1025B000000E21BEFF0E226E236E2B50800A246E69
:1025C0002050285C2150295822502A582350800A34
:1025D00024580CE215D81E4A1F2A1EC028F01FC01E
:1025E00029F0000E29BEFF0E2A6E2B6E28C0E0F0E7
:1025F00029C0E1F0E0C016F0E1C017F03BEF36F083
:1026000020EEDEF0DECF1EF0DDCF1FF01E1E1F1EFF
:10261000120003012D51106E116A10BE110664ECF8
:1026200002F0D8901034266E1134276E01013AA7BB
:102630002ED026C01EF027C01FF0000E1FBEFF0EBA
:10264000206E216E2C51345D106E2D513559116E56
:102650002E513659126E2F513759136E62EC39F0E4
:102660001350800A226E1E50105C1F5011582050CB
:1026700012582150800A22580AE201013A51FE0BF9
:102680003A6F3B51FE0B3B6F03013A913A870101D0
:1026900030512C5D4C6F31512D594D6F32512E59A7
:1026A0004E6F33512F594F6F2CC130F12DC131F185
:1026B0002EC132F12FC133F14CC11EF04DC11FF0BC
:1026C0004EC120F04FC121F0020ED8901E361F36A9
:1026D00020362136E82EF9D73851226E000E22BE60
:1026E000FF0E236E246E256E1E50225C3C6F1F5021
:1026F00023583D6F205024583E6F215025583F6F7E
:102700003C5144273D5145233E5146233F514723E9
:102710004751800A810F08E1FF0E465D05E1F80E82
:10272000455D02E1300E445D07E2300E446FF80E65
:10273000456FFF0E466913D04751800A800F08E1AC
:10274000000E465D05E1070E455D02E1D10E445DD8
:1027500007E3D00E446F070E456F000E466B476FC0
:10276000486B496B4A6B4B6B4B51481149114A11ED
:10277000D8B43BAB04D0575106E0570704D0140E31
:10278000576F03013A9F03013C6701D002D0010E4D
:1027900001D0000E1E6E01015751010ED8A4000E8B
:1027A0001E14E8A002D003013A8F3CC140F13DC1A4
:1027B00041F13EC142F13FC143F1030143C310F077
:1027C00044C311F0126A136A3CC114F03DC115F004
:1027D0003EC116F03FC117F029EC3BF010C01EF0CF
:1027E00011C01FF012C020F013C021F0030147C335
:1027F00010F048C311F0126A136A48C114F049C1BD
:1028000015F04AC116F04BC117F029EC3BF01050FF
:102810001E24226E11501F20236E12502020246E81
:1028200013502120256E030145C310F046C311F05B
:10283000126A136A44C114F045C115F046C116F07E
:1028400047C117F029EC3BF010502224286E11509C
:102850002320296E125024202A6E135025202B6E1F
:1028600028C010F029C011F02AC012F02BC013F0BC
:10287000900E146E010E156E000E166A176A08ECA3
:1028800031F013C02BF012C02AF011C029F010C093
:1028900028F050C11EF051C11FF0000E1FBEFF0EE8
:1028A000206E216E2150800A226E28501E5C295015
:1028B0001F582A5020582B50800A225807E221EE38
:1028C00050F0DECF28F0DDCF29F020D02ED81E4AE0
:1028D0001F2A1EC020F01FC021F0000E21BEFF0ED7
:1028E000226E236E2B50800A246E2050285C2150CB
:1028F000295822502A582350800A24580CE215D80F
:102900001E4A1F2A1EC028F01FC029F0000E29BE33
:10291000FF0E2A6E2B6E28C052F129C053F152C10E
:1029200016F053C117F0FCEF38F021EE50F0DECF77
:102930001EF0DDCF1FF01E1E1F1E120003012551C9
:10294000106E116A10BE110664EC02F0D8901034BB
:10295000266E1134276E01010EA72ED026C01EF060
:1029600027C01FF0000E1FBEFF0E206E216E00510B
:10297000085D106E01510959116E02510A59126E0B
:1029800003510B59136E62EC39F01350800A226E1A
:102990001E50105C1F501158205012582150800AB0
:1029A00022580AE201010E51FE0B0E6F0F51FE0B71
:1029B0000F6F03013991398701010451005D206FC8
:1029C00005510159216F06510259226F07510359D0
:1029D000236F00C104F101C105F102C106F103C179
:1029E00007F120C11EF021C11FF022C120F023C138
:1029F00021F0020ED8901E361F3620362136E82EE2
:102A0000F9D70C51226E000E22BEFF0E236E246EEB
:102A1000256E1E50225C106F1F502358116F2050DE
:102A20002458126F21502558136F10511827115137
:102A3000192312511A2313511B231B51800A810F92
:102A400008E1FF0E1A5D05E1F80E195D02E1300E96
:102A5000185D07E2300E186FF80E196FFF0E1A6935
:102A600013D01B51800A800F08E1000E1A5D05E1AA
:102A7000070E195D02E1D10E185D07E3D00E186F45
:102A8000070E196F000E1A6B1B6F1C6B1D6B1E6BF4
:102A90001F6B1F511C111D111E11D8B40FAB04D098
:102AA0002B5106E02B0704D0140E2B6F0301399F26
:102AB00003013B6701D002D0010E01D0000E1E6E53
:102AC00001012B51010ED8A4000E1E14E8A002D063
:102AD0000301398F10C114F111C115F112C116F1A2
:102AE00013C117F1030143C310F044C311F0126A7C
:102AF000136A10C114F011C115F012C116F013C100
:102B000017F029EC3BF010C01EF011C01FF012C0EE
:102B100020F013C021F0030147C310F048C311F0A7
:102B2000126A136A1CC114F01DC115F01EC116F003
:102B30001FC117F029EC3BF010501E24226E1150DB
:102B40001F20236E12502020246E13502120256E4A
:102B5000030145C310F046C311F0126A136A18C18D
:102B600014F019C115F01AC116F01BC117F029ECA9
:102B70003BF010502224286E11502320296E125051
:102B800024202A6E135025202B6E28C010F029C057
:102B900011F02AC012F02BC013F0900E146E010E2B
:102BA000156E000E166A176A08EC31F013C02BF090
:102BB00012C02AF011C029F010C028F024C11EF064
:102BC00025C11FF0000E1FBEFF0E206E216E21508A
:102BD000800A226E28501E5C29501F582A50205807
:102BE0002B50800A225807E221EE24F0DECF28F095
:102BF000DDCF29F020D02ED81E4A1F2A1EC020F07B
:102C00001FC021F0000E21BEFF0E226E236E2B503E
:102C1000800A246E2050285C2150295822502A58BE
:102C20002350800A24580CE215D81E4A1F2A1EC0C1
:102C300028F01FC029F0000E29BEFF0E2A6E2B6E51
:102C400028C026F129C027F126C116F027C117F0A8
:102C50000DEF37F021EE24F0DECF1EF0DDCF1FF0B8
:102C60001E1E1F1E120058C178F159C179F15AC1B8
:102C70007AF15BC17BF17851605D686F7951615980
:102C8000696F7A5162596A6F7B5163596B6F6851F2
:102C90007027695171236A5172236B5173238267C4
:102CA0000DD002013C6B3A97010166BB29D06751F8
:102CB000DF0B676F6651F60B666F22D002014AC2C6
:102CC0001EF01F6A206A216A68C110F069C111F004
:102CD0006AC112F06BC113F062EC39F01350800A34
:102CE000226E1E50105C1F50115820501258215057
:102CF000800A225803E20101820702D049C282F110
:102D000001017351800A810F08E1FF0E725D05E138
:102D1000F40E715D02E1480E705D07E2480E706FBF
:102D2000F40E716FFF0E726913D07351800A800F19
:102D300008E1000E725D05E10B0E715D02E1B90E56
:102D4000705D07E3B80E706F0B0E716F000E726B43
:102D5000736F6C51685D746F6D516959756F6E5109
:102D60006A59766F6F516B59776F7751741175117E
:102D70007611D8B467AB04D0835106E0830704D042
:102D8000140E836F02013A9F02013C6701D002D00A
:102D9000010E01D0000E1E6E01018351010ED8A458
:102DA000000E1E14E8A002D002013A8F68C16CF137
:102DB00069C16DF16AC16EF16BC16FF102013DC273
:102DC00010F03EC211F0126A136A68C114F069C1B2
:102DD00015F06AC116F06BC117F029EC3BF010C07A
:102DE0001EF011C01FF012C020F013C021F002012C
:102DF00041C210F042C211F0126A136A74C114F099
:102E000075C115F076C116F077C117F029EC3BF0CB
:102E100010501E24226E11501F20236E12502020AD
:102E2000246E13502120256E02013FC210F040C2D3
:102E300011F0126A136A70C114F071C115F072C1F9
:102E400016F073C117F029EC3BF010502224266EC7
:102E500011502320276E12502420286E1350252055
:102E6000296E26C010F027C011F028C012F029C02A
:102E700013F0900E146E010E156E000E166A176A8E
:102E800008EC31F013C029F012C028F011C027F06F
:102E900010C026F07CC11EF07DC11FF0000E1FBEC9
:102EA000FF0E206E216E2150800A226E26501E5C7D
:102EB00027501F58285020582950800A22580BE2CA
:102EC00002013A5120093A6F21EE7CF0DECF26F064
:102ED000DDCF27F024D037D81E4A1F2A1EC020F08D
:102EE0001FC021F0000E21BEFF0E226E236E29505E
:102EF000800A246E2050265C2150275822502858E2
:102F00002350800A245811E202013A5120093A6FF5
:102F10001AD81E4A1F2A1EC026F01FC027F0000E16
:102F200027BEFF0E286E296E04D002013A51DF0B36
:102F30003A6F26C07EF127C07FF17EC116F07FC1B7
:102F400017F0F3EF35F021EE7CF0DECF1EF0DDCF91
:102F50001FF01E1E1F1E1200BAC0DAF0BBC0DBF04D
:102F6000BCC0DCF0BDC0DDF0DA51C25DCA6FDB5120
:102F7000C359CB6FDC51C459CC6FDD51C559CD6FEE
:102F8000CA51D227CB51D323CC51D423CD51D523F1
:102F9000E4670DD002013B6B39970001C8BB29D013
:102FA000C951DF0BC96FC851F60BC86F22D002019F
:102FB0004AC21EF01F6A206A216ACAC010F0CBC044
:102FC00011F0CCC012F0CDC013F062EC39F0135008
:102FD000800A226E1E50105C1F501158205012584B
:102FE0002150800A225803E20001E40702D049C2BE
:102FF000E4F00001D551800A810F08E1FF0ED45D95
:1030000005E1F40ED35D02E1480ED25D07E2480E01
:10301000D26FF40ED36FFF0ED46913D0D551800A4E
:10302000800F08E1000ED45D05E10B0ED35D02E1D7
:10303000B90ED25D07E3B80ED26F0B0ED36F000E40
:10304000D46BD56FCE51CA5DD66FCF51CB59D76FE8
:10305000D051CC59D86FD151CD59D96FD951D61142
:10306000D711D811D8B4C9AB04D0E55106E0E507B3
:1030700004D0140EE56F0201399F02013B6701D0B5
:1030800002D0010E01D0000E1E6E0001E551010EAE
:10309000D8A4000E1E14E8A002D00201398FCAC0C5
:1030A000CEF0CBC0CFF0CCC0D0F0CDC0D1F002017B
:1030B0003DC210F03EC211F0126A136ACAC014F089
:1030C000CBC015F0CCC016F0CDC017F029EC3BF00A
:1030D00010C01EF011C01FF012C020F013C021F06C
:1030E000020141C210F042C211F0126A136AD6C046
:1030F00014F0D7C015F0D8C016F0D9C017F029ECDD
:103100003BF010501E24226E11501F20236E1250CF
:103110002020246E13502120256E02013FC210F0A2
:1031200040C211F0126A136AD2C014F0D3C015F075
:10313000D4C016F0D5C017F029EC3BF01050222473
:10314000266E11502320276E12502420286E135013
:103150002520296E26C010F027C011F028C012F0DB
:1031600029C013F0900E146E010E156E000E166A33
:10317000176A08EC31F013C029F012C028F011C012
:1031800027F010C026F0DEC01EF0DFC01FF0000EDA
:103190001FBEFF0E206E216E2150800A226E265027
:1031A0001E5C27501F58285020582950800A22584A
:1031B0000BE2020139512009396F20EEDEF0DECF3B
:1031C00026F0DDCF27F024D037D81E4A1F2A1EC094
:1031D00020F01FC021F0000E21BEFF0E226E236ED4
:1031E0002950800A246E2050265C215027582250F6
:1031F00028582350800A245811E20201395120092D
:10320000396F1AD81E4A1F2A1EC026F01FC027F089
:10321000000E27BEFF0E286E296E04D00201395120
:10322000DF0B396F26C0E0F027C0E1F0E0C016F0F8
:10323000E1C017F03BEF36F020EEDEF0DECF1EF0FF
:10324000DDCF1FF01E1E1F1E120000C120F101C1A4
:1032500021F102C122F103C123F12051085D106F59
:1032600021510959116F22510A59126F23510B59DB
:10327000136F105118271151192312511A2313518A
:103280001B232A670AD003013B6B399701010EBB50
:1032900026D00F51DF0B0F6F22D003014AC31EF05F
:1032A0001F6A206A216A10C110F011C111F012C109
:1032B00012F013C113F062EC39F01350800A226E41
:1032C0001E50105C1F501158205012582150800A77
:1032D000225803E201012A0702D049C32AF1010161
:1032E0001B51800A810F08E1FF0E1A5D05E1F40E03
:1032F000195D02E1480E185D07E2480E186FF40EE2
:10330000196FFF0E1A6913D01B51800A800F08E154
:10331000000E1A5D05E10B0E195D02E1B90E185D94
:1033200007E3B80E186F0B0E196F000E1A6B1B6FA8
:103330001451105D1C6F155111591D6F1651125902
:103340001E6F175113591F6F1F511C111D111E1194
:10335000D8B40FAB04D02B5106E02B0704D0140EC9
:103360002B6F0301399F03013B6701D002D0010E8F
:1033700001D0000E1E6E01012B51010ED8A4000ECB
:103380001E14E8A002D00301398F10C114F111C13D
:1033900015F112C116F113C117F103013DC310F06D
:1033A0003EC311F0126A136A10C114F011C115F076
:1033B00012C116F013C117F029EC3BF010C01EF03B
:1033C00011C01FF012C020F013C021F0030141C34F
:1033D00010F042C311F0126A136A1CC114F01DC12F
:1033E00015F01EC116F01FC117F029EC3BF010506C
:1033F0001E24226E11501F20236E12502020246E96
:1034000013502120256E03013FC310F040C311F07B
:10341000126A136A18C114F019C115F01AC116F016
:103420001BC117F029EC3BF010502224266E1150DE
:103430002320276E12502420286E13502520296E39
:1034400026C010F027C011F028C012F029C013F0D8
:10345000900E146E010E156E000E166A176A08ECB7
:1034600031F013C029F012C028F011C027F010C0AD
:1034700026F024C11EF025C11FF0000E1FBEFF0E56
:10348000206E216E2150800A226E26501E5C27502D
:103490001F58285020582950800A22580BE2030157
:1034A00039512009396F21EE24F0DECF26F0DDCF2F
:1034B00027F024D037D81E4A1F2A1EC020F01FC074
:1034C00021F0000E21BEFF0E226E236E2950800ACD
:1034D000246E2050265C2150275822502858235013
:1034E000800A245811E2030139512009396F1AD892
:1034F0001E4A1F2A1EC026F01FC027F0000E27BE3E
:10350000FF0E286E296E04D003013951DF0B396F8D
:1035100026C026F127C027F126C116F027C117F0D3
:103520000DEF37F021EE24F0DECF1EF0DDCF1FF0DF
:103530001E1E1F1E12002CC14CF12DC14DF12EC1BB
:103540004EF12FC14FF14C51345D3C6F4D51355907
:103550003D6F4E5136593E6F4F5137593F6F3C5179
:1035600044273D5145233E5146233F51472356674B
:103570000AD003013C6B3A9701013ABB26D03B517C
:10358000DF0B3B6F22D003014AC31EF01F6A206A83
:10359000216A3CC110F03DC111F03EC112F03FC1A3
:1035A00013F062EC39F01350800A226E1E50105C4A
:1035B0001F501158205012582150800A225803E2FF
:1035C0000101560702D049C356F101014751800A53
:1035D000810F08E1FF0E465D05E1F40E455D02E155
:1035E000480E445D07E2480E446FF40E456FFF0E2F
:1035F000466913D04751800A800F08E1000E465DEE
:1036000005E10B0E455D02E1B90E445D07E3B80E1E
:10361000446F0B0E456F000E466B476F40513C5D8B
:10362000486F41513D59496F42513E594A6F43518C
:103630003F594B6F4B51481149114A11D8B43BAB1C
:1036400004D0575106E0570704D0140E576F0301FA
:103650003A9F03013C6701D002D0010E01D0000E59
:103660001E6E01015751010ED8A4000E1E14E8A0D1
:1036700002D003013A8F3CC140F13DC141F13EC14E
:1036800042F13FC143F103013DC310F03EC311F0CD
:10369000126A136A3CC114F03DC115F03EC116F028
:1036A0003FC117F029EC3BF010C01EF011C01FF015
:1036B00012C020F013C021F0030141C310F042C337
:1036C00011F0126A136A48C114F049C115F04AC1D9
:1036D00016F04BC117F029EC3BF010501E24226E5F
:1036E00011501F20236E12502020246E13502120D1
:1036F000256E03013FC310F040C311F0126A136A34
:1037000044C114F045C115F046C116F047C117F089
:1037100029EC3BF010502224266E11502320276EF6
:1037200012502420286E13502520296E26C010F038
:1037300027C011F028C012F029C013F0900E146EAB
:10374000010E156E000E166A176A08EC31F013C0F0
:1037500029F012C028F011C027F010C026F050C187
:103760001EF051C11FF0000E1FBEFF0E206E216E15
:103770002150800A226E26501E5C27501F58285068
:1037800020582950800A225807E221EE50F0DECF5F
:1037900026F0DDCF27F020D02ED81E4A1F2A1EC0CB
:1037A00020F01FC021F0000E21BEFF0E226E236EFE
:1037B0002950800A246E2050265C21502758225020
:1037C00028582350800A24580CE215D81E4A1F2A74
:1037D0001EC026F01FC027F0000E27BEFF0E286E69
:1037E000296E26C052F127C053F152C116F053C1C1
:1037F00017F0FCEF38F021EE50F0DECF1EF0DDCFF9
:103800001FF01E1E1F1E1200E8CF36F03650080DA6
:103810008A0EF324D96E010EF420DA6EDECF34F076
:10382000DDCF35F03650040D020EF324D96E030EB1
:103830000FD903E2316A020E0AD03650040D000E91
:10384000F324D96E030E04D904E2316A010E306EFE
:1038500002D0306A316A326A336AF2D80101840ECA
:10386000F324206E010EE3D8DECF22F0DDCF23F06B
:103870002250345C2350355868E2E2D8840EF32499
:10388000206E010ED4D8DECF22F0DDCF23F03450ED
:10389000225E3550235A22C010F023C011F0126A64
:1038A000136A32C024F033C025F0D8902436253670
:1038B000D8902436253630C026F031C027F0263A7D
:1038C000273AF00E271626500F0B2712F00E261659
:1038D0003650300D0401000EF324286E040EF4203F
:1038E000296E265028242A6E275029202B6E24501A
:1038F0002A24D96E25502B20DA6EDECF14F0DECFCD
:1039000015F0DECF16F0DECF17F029EC3BF00B0EF2
:1039100001D0A9D8E82EFDD7D89032342C6E33349C
:103920002D6E3650080D0201CB0EF3242E6E020EC2
:10393000F4202F6E2C502E24D96E2D502F20DA6EAD
:1039400010C0DEFF11C0DDFF09D07AD80201CB0E16
:10395000F324206E020E6BD8DE6ADD6A324A332A07
:103960003350800A800F030ED8B4325C01E275D761
:103970003550800A800F480ED8B4345C05E3B90E88
:103980003426FF0E352202D0346A356A136A640E7B
:10399000126E34C010F035C011F06DEC01F010C0A3
:1039A00016F011C017F0196A1C0E186EC0EC38F032
:1039B00016C034F017C035F034C010F035C011F027
:1039C000000E11BEFF0E126E136E30C01EF031C01D
:1039D0001FF01E3A1F3AF00E1F161E500F0B1F123B
:1039E000F00E1E163650300D04010C0EF324206E1E
:1039F000040E1DD8DECF14F0DECF15F0DECF16F0AA
:103A0000DECF17F029EC3BF00B0E01D02CD8E82EBE
:103A1000FDD73650080D0201D10EF324D96E020EE7
:103A2000F420DA6E10C0DEFF11C0DDFF1200F420BA
:103A3000216E1E502024D96E1F502120DA6E1200F4
:103A4000D89032341E6E33341F6E3650080D12007B
:103A5000F420DA6EDECF1EF0DDCF1FF01E50345C96
:103A60001F5035581200D8901332123211321032D2
:103A70001200000E92EC39F01FC025F020C026F095
:103A800045EC00F028C049F027C048F026C047F0B8
:103A900025C046F0020E92EC39F01FC025F020C080
:103AA00026F045EC00F0D5D8F7D8C4EC2EF01DC0B8
:103AB0002CF01CC02BF01BC02AF01AC029F062ECBD
:103AC00000F02CC034F02BC033F02AC032F029C0F3
:103AD00031F0D9EC32F034C076F033C075F032C03A
:103AE00074F031C073F0D7EC33F0010E92EC39F082
:103AF0001FC025F020C026F045EC00F028C049F09A
:103B000027C048F026C047F025C046F0030E92ECCF
:103B100039F01FC025F020C026F045EC00F099D800
:103B2000BBD8C4EC2EF01DC02CF01CC02BF01BC069
:103B30002AF01AC029F062EC00F02CC034F02BC03F
:103B400033F02AC032F029C031F0D9EC32F034C061
:103B500076F033C075F032C074F031C073F0D7EC3A
:103B600033F0000E92EC39F01FC025F020C026F093
:103B700045EC00F028C049F027C048F026C047F0C7
:103B800025C046F0020E92EC39F01FC025F020C08F
:103B900026F045EC00F05DD86AD8C4EC2EF01DC0CC
:103BA0002CF01CC02BF01BC02AF01AC029F062ECCC
:103BB00000F02CC034F02BC033F02AC032F029C002
:103BC00031F0D9EC32F034C076F033C075F032C049
:103BD00074F031C073F0D7EC33F0010E92EC39F091
:103BE0001FC025F020C026F045EC00F028C049F0A9
:103BF00027C048F026C047F025C046F0030E92ECDF
:103C000039F01FC025F020C026F045EC00F021D887
:103C10002ED8C4EC2EF01DC02CF01CC02BF01BC005
:103C20002AF01AC029F062EC00F02CC034F02BC04E
:103C300033F02AC032F029C031F0D9EC32F034C070
:103C400076F033C075F032C074F031C073F0D7EF46
:103C500033F028C04DF027C04CF026C04BF025C0F3
:103C60004AF0356A366A376A400E386E400C46C0F4
:103C70002DF047C02EF048C02FF049C030F01E6A2A
:103C80001F6A206E216E4AC01AF04BC01BF04CC058
:103C90001CF04DC01DF012004AC02DF04BC02EF09C
:103CA0004CC02FF04DC030F01E6A1F6A206E216E8E
:103CB00046C01AF047C01BF048C01CF049C01DF0B8
:103CC0001200ABA203D0AB9800F0AB88A3EC04F0D9
:103CD0000101BC51105C146EBD511158156EBE51DE
:103CE0001258166EBF511358176EBD0E145C020E9B
:103CF0001558000E1658000E175801E2DAD0C7EC1E
:103D000004F00001F56BA3EC04F013C0BFF112C086
:103D1000BEF111C0BDF110C0BCF103014F6BC9D0A1
:103D200029EC03F05B6EA0D05BAEC3D05B50900A71
:103D300002E10A0E93D05B50A00A04E05B50A10A96
:103D400001E0B7D0BAD8576A010E88D05B6602D0BE
:103D5000020E84D0F56B566AACD056500BE0500E74
:103D60005724D96EDA6A030EDA225BC0DFFF572AC6
:103D700056069FD0F56B9DD05B50800AFBE1F52B7A
:103D800098D05B50040A01E094D09EA8FED7040EA0
:103D9000AD6E110EF56FACA2FED79AEC04F018ECE4
:103DA00003F087D05B50C00BC00A01E082D0120E36
:103DB000F56FA3EC04F013C0BFF112C0BEF111C047
:103DC000BDF110C0BCF15B50070B0001F46F0301A3
:103DD00060510001F41904E003016051A3EC03F009
:103DE0006CD85B1C0001F36F576A56C061F361D059
:103DF00056500CE0C00E5724D96EDA6A040EDA224F
:103E00005BC0DFFF5B500001F31BB1D75B50F36376
:103E100002D06B6707D09EA8FED7020EAD6E010ED2
:103E20006B6F03D0010E03014F6F00016B07186A1F
:103E30000FD0C00E1824D96EDA6A040EDA22620E90
:103E40001824E16EE26A030EE222DFCFE7FF182AB0
:103E500003016151185CEDE3110E0001F56F29D0EB
:103E6000F56BC7EC04F025D00001F55101E15CD7FA
:103E7000010A01E16BD7030A01E16FD7080A01E1EA
:103E80007BD7010A01E17BD7070A01E178D7010A54
:103E900001E175D7030A01E172D7010A01E16FD789
:103EA0001F0A01E16ED7010A01E17CD7030AA0E0F5
:103EB000D7D70201EB6734D712005BC014F0D8905B
:103EC0001432D8901432D8901432070E14161450AD
:103ED000400F156E15C0F6FF0E0EF76E0800F5CFF9
:103EE00056F01200E8CF4EF0A8D0F2D88480969019
:103EF000848296920E5110090E6F0F51100962D0F4
:103F0000DED8858C828A3A5110093A6F3B511009EC
:103F100063D0BFD884809690848296920F51100906
:103F20000F6F0E5110090E6F979C949A858C828AA0
:103F30003B5110093B6F3A5110095CD0010E556E90
:103F4000000CFD0E0201BA6F030143EC23F0000CDC
:103F500001012C6B2D6B2E6B2F6B006B016B026BB9
:103F6000036B086B096B0A6B0B6B346B356B366B31
:103F7000376B0E6B0F6B3A6B3B6B266B276B526B81
:103F8000536B0301396B3A6B000C30518009306F71
:103F900028518009286F000C55507AE0010E6AEC18
:103FA0003AF039EC1DF0556A000C4AEC30F0030190
:103FB000C06FEAEC2FF00301C16F21EC32F0000C6E
:103FC00087D873D80F6F000C7AD8859C829A3A51A3
:103FD000EF0B3A6F3B51EF0B3B6F000C5AD865D893
:103FE0000F6F979C949A859C829A3B51EF0B3B6F85
:103FF0003A51EF0B3A6F000CCCEC37F0000C01019A
:10400000006B016B026B036B000C01012C6B2D6BC1
:104010002E6B2F6B000C55503BE0000E6AEC3AF013
:10402000C0D7555035E00AEC38F0CCEC37F0BBD7B0
:104030003AEC03F0C1EC39F0000C4E50410A01E1BA
:1040400054D7030A01E15CD7010A01E162D7060AED
:1040500001E174D70D0A01E174D71A0A01E178D79A
:10406000010A93E0070A98E00C0A9FE0390AA8E0E9
:10407000030AAAE0010AB2E00F0ABEE01E0ABFE08E
:10408000010AC3E0070AC7E0030ACBE00D0AD0E04B
:10409000000C3B6B3C6B256B2D6B01010F51DF0B53
:1040A0000F6F3B51DF0B3B6F1200969096928490FE
:1040B00084920E51EF0B0E6F0F51EF0B12003C6B01
:1040C0002D6B01013B51DF0B3B6F979C949A1200C3
:1040D0003B6B256B01010F51DF0B0F6F12000F01BE
:1040E00033A303D0339900F03389A3EC04F001012A
:1040F000C051105C146EC1511158156EC251125846
:10410000166EC3511358176EBD0E145C020E15586F
:10411000000E1658000E175801E2B1D023EC05F03E
:104120000001626BA3EC04F013C0C3F112C0C2F132
:1041300011C0C1F110C0C0F10301836BA0D007EC26
:1041400003F05C6E81D05CAE9AD05C50900A02E1C4
:104150000A0E74D05C50A00A04E05C50A10A01E091
:104160008ED091D8F66B010E69D05C6602D0020E3B
:1041700065D0626B586A83D0585006E0840E98D898
:104180000001F62B58067BD0626B79D05C50800A18
:10419000FBE1622B74D05C50040A71E1A4A8FED745
:1041A000040E0F011D6F110E0001626F0F0132A38B
:1041B000FDD752EC05F0F6EC02F061D05C50C00B7C
:1041C000C00A5DE1120E626FA3EC04F013C0C3F1EC
:1041D00012C0C2F111C0C1F110C0C0F15C50070B98
:1041E0000001616F030194510001611904E00301B2
:1041F000945195EC03F047D85C1C0001606FF66B9E
:1042000058C095F33CD0585005E0960E51D85C50FC
:10421000601BB6D75C50606302D06C6709D0A4A85D
:10422000FED7020E0F011D6F010E00016C6F03D04F
:10423000010E0301836F00016C07110E626F1FD026
:10424000626B23EC05F01BD00001625101E17BD7CA
:10425000010A8BE0030A90E0080A98E0010A99E05D
:10426000070A97E0010A95E0030A93E0010A91E04A
:104270001F0A91E0010AA2E0030AC5E0E1D70201AA
:1042800006675DD712005CC014F0D8901432D89045
:104290001432D8901432070E14161450400F156EB5
:1042A00015C0F6FF0E0EF76E0800F5CF58F012009D
:1042B0000001F625D96EDA6A030EDA225CC0DFFF50
:1042C000030C0F012FA303D02F9900F02F89A3EC2B
:1042D00004F00101C851105C146EC9511158156EDB
:1042E000CA511258166ECB511358176EBD0E145C7E
:1042F000020E1558000E1658000E175801E2AFD0E6
:10430000BEEC04F00001686BA3EC04F013C0CBF129
:1043100012C0CAF111C0C9F110C0C8F10201836B0B
:104320009ED0C3EC02F05E6E7FD05EAE98D05E5041
:10433000900A02E10A0E72D05E50A00A04E05E50BC
:10434000A10A01E08CD08FD8F86B010E67D05E66B1
:1043500002D0020E63D0686B5A6A81D05A5004E0D2
:10436000840E96D85A067BD0686B79D05E50800A4E
:10437000FBE1682B74D05E50040A71E1A6A8FED759
:10438000040E0F01296F110E0001686F0F012EA39B
:10439000FDD7D8EC04F0B2EC02F061D05E50C00B57
:1043A000C00A5DE1120E686FA3EC04F013C0CBF1FC
:1043B00012C0CAF111C0C9F110C0C8F15E50070B9C
:1043C0000001676F020194510001671904E00201C6
:1043D000945179EC03F047D85E1C0001666FF86BCE
:1043E0005AC095F23CD05A5005E0960E51D85E5016
:1043F000661BB8D75E50666302D06E6709D0A6A868
:10440000FED7020E0F01296F010E00016E6F03D05F
:10441000010E0201836F00016E07110E686F1FD03D
:10442000686BBEEC04F01BD00001685101E17DD740
:10443000010A8DE0030A92E0080A98E0010A99E077
:10444000070A97E0010A95E0030A93E0010A91E068
:104450001F0A91E0010AA2E0030AC5E0E1D70301C7
:10446000CB675FD712005EC014F0D8901432D8909A
:104470001432D8901432070E14161450400F156ED3
:1044800015C0F6FF0E0EF76E0800F5CF5AF01200B9
:104490000001F825D96EDA6A020EDA225EC0DFFF6B
:1044A000F82B020C0E01FFA303D0FF9900F0FF8947
:1044B000A3EC04F00101C451105C146EC5511158F5
:1044C000156EC6511258166EC7511358176EBD0E91
:1044D000145C020E1558000E1658000E175801E213
:1044E000AFD0B5EC04F00001656BA3EC04F013C091
:1044F000C7F112C0C6F111C0C5F110C0C4F102016C
:104500004F6B9ED0E5EC02F05D6E7FD05DAE98D033
:104510005D50900A02E10A0E72D05D50A00A04E0DC
:104520005D50A10A01E08CD08FD8F76B010E67D0E7
:104530005D6602D0020E63D0656B596A81D0595016
:1045400004E0500E96D859067BD0656B79D05D504B
:10455000800AFBE1652B74D05D50040A71E1A6ACC2
:10456000FED7040E0E01F96F110E0001656F0E01EA
:10457000FEA3FDD7E8EC04F0D4EC02F061D05D506E
:10458000C00BC00A5DE1120E656FA3EC04F013C00E
:10459000C7F112C0C6F111C0C5F110C0C4F15D5021
:1045A000070B0001646F020160510001641904E00F
:1045B0000201605187EC03F047D85D1C0001636F76
:1045C000F76B59C061F23CD0595005E0620E51D8EA
:1045D0005D50631BB8D75D50636302D06D6709D02F
:1045E000A6ACFED7020E0E01F96F010E00016D6F31
:1045F00003D0010E02014F6F00016D07110E656FB0
:104600001FD0656BB5EC04F01BD00001655101E1D2
:104610007DD7010A8DE0030A92E0080A98E0010ABA
:1046200099E0070A97E0010A95E0030A93E0010A7E
:1046300091E01F0A91E0010AA2E0030AC5E0E1D778
:104640000301DF675FD712005DC014F0D890143209
:10465000D8901432D8901432070E14161450400F0C
:10466000156E15C0F6FF0E0EF76E0800F5CF59F067
:1046700012000001F725D96EDA6A020EDA225DC057
:10468000DFFFF72B020C146A1E0E136E3AEC03F0D8
:10469000BBD0C80E78EC02F0C80E78EC02F0C80E61
:1046A00078EC02F0C80E78EC02F0C80E78EC02F05C
:1046B000C80E78EC02F0C80E78EC02F0C80E78EC68
:1046C00002F0C80E78EC02F0C80E78EC02F0C80ECA
:1046D00078EC02F0C80E78EC02F0C80E78EC02F02C
:1046E000C80E78EC02F0C80E78EC02F0C80E78EC38
:1046F00002F0C80E78EC02F0C80E78EC02F0C80E9A
:1047000078EC02F0C80E78EC02F0C80E78EC02F0FB
:10471000C80E78EC02F0C80E78EC02F0C80E78EC07
:1047200002F01306D8A01406800E0001726F716BA0
:10473000706BF29E43EC04F0FCEC0DF00001726B28
:10474000800E716F706BFCEC0DF043EC04F0F28E98
:10475000C80E78EC02F0C80E78EC02F0C80E78ECC7
:1047600002F0C80E78EC02F0C80E78EC02F0C80E29
:1047700078EC02F0C80E78EC02F0C80E78EC02F08B
:10478000C80E78EC02F0C80E78EC02F0C80E78EC97
:1047900002F0C80E78EC02F0C80E78EC02F0C80EF9
:1047A00078EC02F0C80E78EC02F0C80E78EC02F05B
:1047B000C80E78EC02F0C80E78EC02F0C80E78EC67
:1047C00002F0C80E78EC02F0C80E78EC02F0C80EC9
:1047D00078EC02F0C80E78EC02F0C80E78EC02F02B
:1047E0000001726B800E716F706BF29E43EC04F0EF
:1047F000FCEC0DF0800E0001726F716B706BFCECC5
:104800000DF043EC04F0F28E1450131001E041D788
:104810000001726B716B706BF29E43EC04F0FCEC68
:104820000DF0FCEC0DF043EC04F0F28E0301BA51F4
:10483000FD0A010ED8A4000E126E0201BA51FD0A43
:10484000010ED8A4000E1210E8B084EC33F051C071
:10485000BAF251C0BAF31200E8CF25F0A3D0D8D8ED
:10486000969C979E849C859EC851EF0BC86FC9513A
:10487000EF0B37D0C4D88498849A6651EF0B666FDB
:104880006751EF0B38D03B6BAED8969C979E849CBB
:10489000859E0001C851EF0BC86FC951EF0BC96F5E
:1048A0009698969A8498849A01016751EF0B676FE6
:1048B0006651EF0B39D00001BA6BBB6BBC6BBD6BA3
:1048C000000C0101586B596B5A6B5B6B000CA0D844
:1048D000848C969C858E979EC8511009C86FC951CB
:1048E0001009C96F000C8BD88488848A665110091E
:1048F000666F67511009676F000C3B6B74D8848C2E
:10490000969C858E979E0001C9511009C96FC851A8
:104910001009C86F979C949A858C828A010167510F
:104920001009676F66511009666F000CFD0E0301D8
:10493000BA6F020143EC23F0000C0001BA6BBB6BB1
:10494000BC6BBD6B0101586B596B5A6B5B6B000103
:10495000C26BC36BC46BC56B0101606B616B626B37
:10496000636B0001C86BC96B0101666B676B020169
:10497000396B3A6B000C30518009306F2851800937
:10498000286F000C8AEC2FF00201C06F28EC2FF08A
:104990000201C16F21EC32F0000C3AEC03F0C1ECE3
:1049A00039F0000C2550410A92E0030A9CE0010A0C
:1049B000A4E00B0ABBE01A0AC0E0010ADCE00B0A23
:1049C000E1E0390A01E14BD7030A01E153D7010ABB
:1049D00001E159D7110A01E16ED7010A01E171D74E
:1049E000090ADBE0000C3C6B256B2D6B0001C95103
:1049F000DF0BC96F01016751DF0B676F12003C6B62
:104A00002D6B01016751DF0B676F9698969A120024
:104A10003B6B256B0001C951DF0BC96F1200E8CF5A
:104A20002FF05A0E2C6EA50E2B6E2F50030D010188
:104A3000EE0EF324D96E010EF420DA6EDECF10F004
:104A4000DECF11F0DDCF12F0010E136E17EC3AF04D
:104A5000306A2A6AB3D82F5083EC36F02D6E2BC003
:104A600010F02CC011F02DC012F0136A96EC3BF040
:104A700010C02BF011C02CF028502DC01BF01C6A68
:104A80001D6A1E6AE82A05D0D8901B361C361D36D2
:104A90001E36E82EF9D71B5024121C5025121D502B
:104AA00026121E5093D8030E2E64D5D72F50300DEA
:104AB0000401000EF3241B6E040EF4201C6E305013
:104AC000100DF3501B241D6EF4501C201E6E2A5036
:104AD000040DF3501D24D96EF4501E20DA6E24C04C
:104AE000DEFF25C0DEFF26C0DEFF27C0DEFF2A2A4C
:104AF000030E2A64AFD7302A020E3064AAD7306A78
:104B00005DD82F5083EC36F02D6E2BC010F02CC0EA
:104B100011F02DC012F0136A96EC3BF010C02BF090
:104B200011C02CF028C01BF02D501C6E1D6A1B2AD2
:104B300003D0D8901C361D361B2EFBD71CC01EF090
:104B40001DC01FF0000E1FBEFF0E206E216E1E50F6
:104B500024121F50251220502612215037D8010E42
:104B60002E64CFD72F50040D0301000EF3241B6ECB
:104B7000030EF4201C6E3050020DF3501B24D96E2E
:104B8000F4501C20DA6E24C0DEFF25C0DDFF302A81
:104B9000010E3064B5D72F5083EC36F0236E226AB5
:104BA0002F5083EC36F02226000E23222C5023189F
:104BB00002E12B50221801E1010C000C246A256A45
:104BC000266A276A286A296A2E6A12002712080EA6
:104BD0002826000E29222E2A000CE8CF3FF03F5055
:104BE00041EC3AF0000901E086D0A4D8000EDF6E57
:104BF000A3EC04F03F50040D010158EC2DF0000C23
:104C000088D8A3EC04F09ED8060E3B5C000E3C58FE
:104C1000000E3D58000E3E58F2E33F50C4EC31F018
:104C200089D8010EDF6E000C3F50C9EC36F082D8F7
:104C3000020EDDD76ED8A3EC04F084D8650E3B5C81
:104C4000000E3C58000E3D58000E3E58D8E372D876
:104C5000030EDF6E36C017F03F5028EC34F0A3ECA3
:104C600004F03F50040D010158EC2DF03F50030DAE
:104C7000EE0EF324D96E010EF420DA6EDECF10F0C2
:104C8000DECF11F0DDCF12F0010E136E17EC3AF00B
:104C9000000C3FD8A3EC04F055D8050E3B5C000E89
:104CA0003C58000E3D58000E3E58A9E33F500FEC13
:104CB00025F0000903E03ED8040E99D73BD8000E3A
:104CC000DF6A00F095D725D8A3EC04F03BD82D0E71
:104CD0003B5C010E3C58000E3D58000E3E588FE3E1
:104CE00029D8050E84D736C02CF03F50DDEC2CF0CF
:104CF000000985E0010C1ED8DF5082E0010A94E033
:104D0000030A98E0010AC5E0070ADDE0010AEBE0CA
:104D1000000C3F50040DA40EF324D96E010EF420B4
:104D2000DA6EDECF37F0DECF38F0DECF39F0DECF0F
:104D30003AF012000101B40E3F24D96EDA6A010E76
:104D4000DA2212003750105C3B6E385011583C6E1E
:104D5000395012583D6E3A5013583E6E1200000101
:104D6000E9510201821901E198D082C2E9F0010102
:104D7000B76B6CEC05F08F96D7EC03F025D0F7EC11
:104D800001F08BD07FEC04F088D07FEC04F0010EB2
:104D9000D0EC04F082D07FEC04F0000ED0EC04F0F4
:104DA0007CD000F07AD0E3EC03F08F86040E000193
:104DB000EC6F73D0030EC4EC31F06FD000F0D7EC81
:104DC0003BF0BEEC04F069D002018251010AD7E049
:104DD000030AD8E0010AD9E0070ADDE0030AE1E0AE
:104DE0000F0ADFE0010ADFE0040AE4E0030AE2E080
:104DF000010AE0E01F0ADEE0010ADCE0030ABFE08E
:104E0000010ADCE04AD015EF35F07FEC04F074ECD9
:104E10003BF01EC083F21FC084F2120000F01200AB
:104E2000E9C036F0030EEDEC25F00009D8B412000D
:104E3000030E04EC1CF0030E11EC0CF00201836F66
:104E40009CC188F29EC189F2A0C18AF2A2C18BF2F4
:104E5000E3C284F2E5C285F2E7C286F2E9C287F2D4
:104E60001200E9C036F0030EEDEC25F00009D8B4CD
:104E70001200D8900001E935406E416A4136800E3B
:104E80004024D96E010E4120DA6EDF500201836F9B
:104E9000120061EF21F000F012000001E951010A57
:104EA000B2E0030AB2E0010AB0E0070AAEE00C0A81
:104EB000B5E0050AB5E0030AD4E0010AD2E01F0A12
:104EC000D0E0010ACEE0030A9EE0010AE2E0E3D767
:104ED0000001E85102014E1901E198D04EC2E8F0FC
:104EE0000101B66B70EC05F08F98EFEC03F025D064
:104EF00086EC01F08BD088EC04F088D088EC04F0CC
:104F0000010EE0EC04F082D088EC04F0000EE0EC3E
:104F100004F07CD000F07AD0FBEC03F08F88030E15
:104F20000001EC6F73D0020EC4EC31F06FD000F0D2
:104F30009CEC00F0B5EC04F069D002014E51010A7E
:104F4000D7E0030AD8E0010AD9E0070ADDE0030A46
:104F5000E1E00F0ADFE0010ADFE0040AE4E0030A0F
:104F6000E2E0010AE0E01F0ADEE0010ADCE0030AF9
:104F7000BFE0010ADCE04AD05FEF35F088EC04F0D6
:104F800074EC3BF01EC04FF21FC050F2120000F054
:104F90001200E8C036F0020EEDEC25F00009D8B49E
:104FA0001200020E04EC1CF0020E11EC0CF00201D7
:104FB0004F6F94C154F296C155F298C156F29AC1FE
:104FC00057F2DBC250F2DDC251F2DFC252F2E1C24F
:104FD00053F21200E8C036F0020EEDEC25F00009A5
:104FE000D8B41200D8900001E835406E416A4136CD
:104FF000780E4024D96E010E4120DA6EDF50020196
:105000004F6F120052EF22F000F012000001E85141
:10501000010AB2E0030AB2E0010AB0E0070AAEE01A
:105020000C0AB5E0050AB5E0030AD4E0010AD2E0B3
:105030001F0AD0E0010ACEE0030A9EE0010AE2E086
:10504000E3D70001E7510301821901E198D082C33F
:10505000E7F00101B56B74EC05F0899E07EC04F0F4
:1050600025D00DEC02F08BD091EC04F088D091ECBF
:1050700004F0010EF0EC04F082D091EC04F0000E8C
:10508000F0EC04F07CD000F07AD013EC04F0898EC0
:10509000020E0001EC6F73D0010EC4EC31F06FD042
:1050A00000F07FEC00F023EC05F069D003018251A1
:1050B000010AD7E0030AD8E0010AD9E0070ADDE0D7
:1050C000030AE1E00F0ADFE0010ADFE0040AE4E09E
:1050D000030AE2E0010AE0E01F0ADEE0010ADCE088
:1050E000030ABFE0010ADCE04AD0A9EF35F091ECF9
:1050F00004F074EC3BF01EC083F31FC084F3120075
:1051000000F01200E7C036F0010EEDEC25F00009CA
:10511000D8B41200010E04EC1CF0010E11EC0CF0DE
:105120000301836F8CC188F38EC189F390C18AF328
:1051300092C18BF3D3C284F3D5C285F3D7C286F371
:10514000D9C287F31200E7C036F0010EEDEC25F06E
:105150000009D8B41200D8900001E735406E416ACA
:105160004136700E4024D96E010E4120DA6EDF50B8
:105170000301836F12006FEF20F000F012000001B6
:10518000E751010AB2E0030AB2E0010AB0E0070AFF
:10519000AEE00C0AB5E0050AB5E0030AD4E0010A66
:1051A000D2E01F0AD0E0010ACEE0030A9EE0010A25
:1051B000E2E0E3D703014E510001E61901E196D088
:1051C0004EC3E6F00101B46B899C78EC05F01FEC4E
:1051D00004F023D023EC02F089D0ACEC04F086D0AC
:1051E000ACEC04F0010EF8EC04F080D0000EF8EC0A
:1051F00004F0F3D72BEC04F0898C010E0001EC6F66
:1052000075D0000EC4EC31F071D000F0B7EC3BF07B
:10521000C7EC04F06BD000F069D003014E51010AD5
:10522000D9E0030ADAE0010ADBE0070ADFE0030A5B
:10523000F2E00F0AF0E0010ADDE0040AE2E0030A0E
:10524000E0E0010ADEE01F0ADCE0010ADAE0030A1E
:10525000C1E0010ADAE0DFD7CAEF34F0ACEC04F0C9
:1052600074EC3BF01EC04FF31FC050F3120000F06F
:105270001200E6C036F0000EEDEC25F00009D8B4BF
:105280001200000E04EC1CF0000E11EC0CF00301F7
:105290004F6F84C154F386C155F388C156F38AC158
:1052A00057F3CBC250F3CDC251F3CFC252F3D1C2A8
:1052B00053F31200E6C036F0000EEDEC25F00009C5
:1052C000D8B41200D8900001E635406E416A4136EC
:1052D000680E4024D96E010E4120DA6EDF500301C2
:1052E0004F6F120061EF1EF000F012000001E65156
:1052F000010AB2E0030AB2E0010AB0E0070AAEE038
:105300000C0AB5E0050AB5E0030AD4E0010AD2E0D0
:105310001F0AD0E0010ACEE0030A9EE0010AE2E0A3
:10532000E3D783B802D0548201D054928338010B62
:105330000001EE190AE0000E83B8010EEE6F83B88B
:1053400004D0FA0E526001D0522A83BC02D054809D
:1053500001D054908338E832E832010BED190AE0AD
:10536000000E83BC010EED6F83BC04D0FA0E5160B9
:1053700001D0512A890E0101D05D130ED1590CE3E1
:10538000548EFD0E0301BA6F00F0020143EC23F0CE
:105390000101D06BD16B07D0D10ED05D070ED15972
:1053A00002E3700E54120301B95122EEB9F0DF622C
:1053B00003D054C0B9F204D00301B951541803E02A
:1053C00054C0B9F306D00201B9515418D8A454C03E
:1053D000B9F20301BA5122EEBAF0DF6205D051C032
:1053E000BAF251C0BAF313D00301BA51511805E013
:1053F000BAC351F051C0BAF208D00201BA515118E3
:1054000004E0BAC251F051C0BAF30001ED6B0301E0
:10541000BB5122EEBBF0DF6205D052C0BBF252C0DE
:10542000BBF313D00301BB51521805E0BBC352F0CC
:1054300052C0BBF208D00201BB51521804E0BBC2FB
:1054400052F052C0BBF30001EE6B0301BC510201EC
:1054500022EEBCF0DF6205D053C0BCF253C0BCF3F7
:1054600012000301BC51531805E0BCC353F053C0F4
:10547000BCF212000201BC515318D8B41200BCC2D5
:1054800053F053C0BCF312001C341D34256E20347D
:105490002134246E255009E0245025600FD025507A
:1054A000245C226E210E225C09E31EC01AF01FC08C
:1054B0001BF020C01CF021C01DF01200245009E098
:1054C000255024600FD02450255C226E210E225CD2
:1054D00009E31AC01AF01BC01BF01CC01CF01DC051
:1054E0001DF01200060E236E1DBE238E21BE238CDE
:1054F0001C8E1D6A208E216A2450256018D0D890F9
:105500001E361F36203621362406245025180BE07F
:1055100023062350070B07E0F2D7D8901D321C3228
:105520001B321A32252A24502562F7D71AD025506B
:10553000246017D0D8901A361B361C361D36250627
:10554000245025180BE023062350070B07E0F2D761
:10555000D890213220321F321E32242A2450256254
:10556000F7D723AE09D01A1E1B1E1C1E1D1E1A2A99
:10557000000E1B221C221D2223AC02D01E1E26D888
:10558000236A1A501E261B501F221C5020221D5019
:10559000212221AE04D01E1E19D8010E236E1EC07A
:1055A00010F01FC011F020C012F021C013F025C070
:1055B00014F023C015F0AAEC30F013C01DF012C097
:1055C0001CF011C01BF010C01AF012001F1E201E8C
:1055D000211E1E2A000E1F2220222122000CD1A0F3
:1055E00013D081A00DD081A204D00101002B000EA8
:1055F00003D0FF0E0101000701230223032303D080
:1056000081B2F7D7F2D7D190D1A213D081A20DD019
:1056100081A004D0FF0E0101000703D00101002B7F
:10562000000E01230223032303D081B0F7D7F2D762
:10563000D192D1A413D081A40DD081A604D00101B0
:105640002C2B000E03D0FF0E01012C072D232E233F
:105650002F2303D081B6F7D7F2D7D194D1A613D098
:1056600081A60DD081A404D0FF0E01012C0703D028
:1056700001012C2B000E2D232E232F2303D081B4C8
:10568000F7D7F2D7D196D1AC13D084AE0DD084A485
:1056900004D00001BA2B000E03D0FF0E0001BA07A0
:1056A000BB23BC23BD2303D084B4F7D7F2D7D19C4E
:1056B000D1AE13D084A40DD084AE04D0FF0E00016F
:1056C000BA0703D00001BA2B000EBB23BC23BD23B5
:1056D00003D084BEF7D7F2D7D19ED1A813D081A82A
:1056E0000DD081AA04D00101582B000E03D0FF0E6B
:1056F0000101580759235A235B2303D081BAF7D7F6
:10570000F2D7D198D1AA13D081AA0DD081A804D004
:10571000FF0E0101580703D00101582B000E592339
:105720005A235B2303D081B8F7D7F2D7D19AF290EE
:10573000120001010E6B3A6B0001C86B0101666B30
:105740003A0E030191D83A0E02018ED81B0E0301C6
:105750007DD81B0E02017AD8030E0101256F246942
:10576000106B116B126B136B146B156B166B176B45
:10577000186B196B1A6B1B6B1C6B1D6B1E6B1F6BF5
:10578000266B276B006B016B026B036B206B216B2D
:10579000226B236B030E516F50693C6B3D6B3E6B6C
:1057A0003F6B406B416B426B436B446B456B466B8D
:1057B000476B486B496B4A6B4B6B030E536F5269D7
:1057C0002C6B2D6B2E6B2F6B4C6B4D6B4E6B4F6B95
:1057D000030E0001DF6FDE69CA6BCB6BCC6BCD6B48
:1057E000CE6BCF6BD06BD16BD26BD36BD46BD56BD5
:1057F000D66BD76BD86BD96BE06BE16BBA6BBB6BBD
:10580000BC6BBD6BDA6BDB6BDC6BDD6B030E01011C
:105810007D6FFF0E7C69686B696B6A6B6B6B6C6B81
:105820006D6B6E6B6F6B706B716B726B736B746B9C
:10583000756B766B776B7E6B7F6B586B596B5A6BA6
:105840005B6B786B796B7A6B7B6B12003E6F580EDB
:105850003D6F3F6B406B920E426F7C0E416F050EA9
:10586000496F500E4A6F500C446F980E436F010EF3
:10587000466F2C0E456F1D0E486F4C0E476F4C0C3B
:1058800004EE00F0E00EEE6AE806FDE101EE00F045
:10589000D60EEE6AE806FDE100EEBAF0430EEE6ABF
:1058A000E806FDE100EE4FF0100EEE6AE806FDE1BD
:1058B00003EECBF0280EEE6AE806FDE102EECBF037
:1058C000340EEE6AE806FDE103EE00F0100EEE6A1B
:1058D000E806FDE102EE00F01A0EEE6AE806FDE1D0
:1058E00000EE60F0090EEE6AE806FDE17E0EF66E4F
:1058F000070EF76E000EF86E04EEE0F010EE18F0F2
:105900000900F5CFEEFFE550E150FAE19E0EF66E8C
:10591000040EF76E000EF86E01EED6F010EE2AF0CF
:105920000900F5CFEEFFE550E150FAE1030EF66E07
:105930000B0EF76E000EF86E0900F5CF6FF0020E39
:10594000F66E0B0EF76E000EF86E0900F5CF5FF0E5
:10595000980EF66E0A0EF76E000EF86E03EE10F05B
:1059600010EE0CF00900F5CFEEFFE550E150FAE142
:105970008C0EF66E0A0EF76E000EF86E03EEF3F064
:1059800010EE0CF00900F5CFEEFFE550E150FAE122
:10599000F80EF66E0A0EF76E000EF86E00EE69F065
:1059A00010EE06F00900F5CFEEFFE550E150FAE108
:1059B000000EF86E00015FEF2EF0E8CF35F03550A5
:1059C000040D0101A40EF324D96E010EF420DA6E49
:1059D000DECF2DF0DECF2EF0DECF2FF0DECF30F099
:1059E000A3EC04F02D50105C316E2E501158326E25
:1059F0002F501258336E30501358346E040E315CF1
:105A0000000E3258000E3358000E345850E3A3EC09
:105A100004F03550040D01014BD82C500D0A2BE138
:105A200058D8DF50246E355084EC38F03550080DCE
:105A30000101840EF3242D6E010EF4202E6E49D840
:105A4000DF50020DF3502D24D96EF4502E20DA6E63
:105A500024C0DEFF25C0DDFF3CD8DF2A3AD8040E83
:105A6000DF62000CCC0E3524D96EDA6A010EDA2220
:105A7000000EDF6E010C35508DEC37F0D8902C34D1
:105A80002D6E2E6A2E363550080D0101680EF32456
:105A90002F6E010EF420306E2D502F24D96E2E5013
:105AA0003020DA6E1EC0DEFF1FC0DDFF010C000CCF
:105AB000A40EF324D96E010EF420DA6E10C0DEFFBE
:105AC00011C0DEFF12C0DEFF13C0DDFFD906D9060C
:105AD0001200CC0E3524D96EDA6A010EDA221200D9
:105AE000C698C7AA506A030E0101FF6FE80EFE6F49
:105AF000C9CF08F0C7A42AD0200E4F6012D00001F1
:105B000069056A1103E14F50000F02D04F50200F7A
:105B1000076E07C0F6FF0E0EF76E0800F5CFC9FF3F
:105B200012D0400E4F640ED0EC0E4F600BD000012F
:105B300069056A1102E14ED801D046D8DA22DF5059
:105B4000C96E01D0C96A4F2AC6883AD0502A50047B
:105B50000CE10850FE0B340A04E100016A6B010EEF
:105B600003D000016A6B020E696F5050020A03E114
:105B700008C04FF025D0400E4F6422D0EC0E4F608D
:105B80001FD0020E50641CD0DE0E4F6006D0000104
:105B900069056A110AE11ED809D0DF0E4F24D96EBB
:105BA000DA6A020EDA2208C0DFFF0ED8DA2208C055
:105BB000DFFF4F50D90A03E1010E0001EB6F4F2ABE
:105BC000C6889E96C69C12000201DF0E4F24D96E35
:105BD000DA6A010C0301DF0E4F24D96EDA6A020C77
:105BE0001C6A10C020F011C021F012C022F013C0B6
:105BF00023F0060E176ED890133212321132103283
:105C0000172EF9D7060ED8901036113612361336E5
:105C1000E82EF9D7400E1026000E11221222132270
:105C20002050105C1B6E46D020C01DF021C01EF01D
:105C300022C01FF017D01650D96EDA6ADF501DC08F
:105C4000F6FF1EC0F7FF1FC0F8FFF56E0C00162A06
:105C50001D2A000E1E221F221406D8A0150615505C
:105C6000141003E01B061B28E6E11DC018F01EC03F
:105C700019F01FC01AF020C01DF021C01EF022C074
:105C80001FF07F84F2AE03D0F29E010E1C6E550E03
:105C90007E6EAA0E7E6E7F827F941C5002E0F28E92
:105CA0001C6A400E1B6E1850206E1950216E1A503F
:105CB000226E236A15501410D8B41200B5D739ECEF
:105CC0001DF0D0A284EC33F021EC32F039EC1DF061
:105CD0008350130E03014E6F606B130E826F946B33
:105CE000130E02014E6F606B130E826F946BC7969A
:105CF00091EC29F066EC31F0DAEC28F021EC28F098
:105D000068EC27F0AFEC26F031EC33F025EC07F02F
:105D10000301205172EC1FF00301206F020120519A
:105D20002CEC24F00201206FA3EC04F00101B85127
:105D3000105C0001B66F0101B95111580001B76F35
:105D40000101BA5112580001B86F0101BB5113583B
:105D50000001B96F1A0EB65D000EB759000EB859A2
:105D6000000EB959C4E3EB51C2E0A3EC04F013C038
:105D7000BBF112C0BAF111C0B9F110C0B8F1000105
:105D8000EB6B9EEC01F0B3D71C341D34226E2266FF
